:020000040000FA
:10000000780400206D0200007102000073020000FD
:100010007502000077020000790200000000000075
:100020000000000000000000000000007B02000053
:100030007D020000000000007F0200003107000088
:1000400083020000B103000083020000830200006D
:10005000830200008302000083020000830200008C
:10006000830200008302000083020000830200007C
:10007000830200008302000083020000830200006C
:10008000830200008302000083020000830200005C
:10009000830200008302000083020000830200004C
:1000A000830200008302000083020000830200003C
:1000B000830200008302000083020000830200002C
:1000C000830200008302000083020000830200001C
:1000D000830200008302000083020000830200000C
:1000E00083020000830200008302000083020000FC
:1000F00083020000830200008302000083020000EC
:1001000083020000830200008302000083020000DB
:1001100083020000830200008302000083020000CB
:1001200083020000830200008302000083020000BB
:1001300083020000830200008302000083020000AB
:1001400000000000000000000000000000000000AF
:10015000830200008302000083020000830200008B
:10016000000000000000000000000000000000008F
:10017000000000000000000000000000000000007F
:10018000000000000000000000000000000000006F
:10019000000000000000000000000000000000005F
:1001A000000000000000000000000000000000004F
:1001B000830200008302000083020000830200002B
:1001C000830200008302000083020000830200001B
:1001D000830200008302000083020000830200000B
:1001E00083020000830200008302000083020000FB
:1001F00083020000830200008302000083020000EB
:10020000830200008302000083020000000000005F
:1002100083020000830200008302000083020000CA
:1002200083020000830200008302000083020000BA
:1002300083020000830200008302000083020000AA
:10024000830200008302000083020000830200009A
:10025000830200008302000083020000830200008A
:1002600083020000830200008302000000F00AB84D
:10027000FEE7FEE7FEE7FEE7FEE7FEE7FEE7FEE756
:10028000FEE7FEE700F002F800F02CF80AA090E884
:10029000000C82448344AAF10107DA4501D100F041
:1002A00021F8AFF2090EBAE80F0013F0010F18BFE2
:1002B000FB1A43F001031847940E0000A40E00003F
:1002C0000023002400250026103A28BF78C1FBD85F
:1002D000520728BF30C148BF0B6070471FB51FBD14
:1002E00010B510BD00F029F81146FFF7F7FF00F038
:1002F00069FB00F047F803B4FFF7F2FF03BC00F01E
:100300004FF8000072B6704762B67047EFF3108086
:1003100072B6704780F31088704730BF704702484C
:100320000249014A024B70477800002078040020FF
:1003300078000020704770477047754600F02CF831
:10034000AE4605006946534620F00700854618B0C2
:1003500020B5FFF7E4FFBDE820404FF000064FF066
:1003600000074FF000084FF0000BAC46ACE8C009A6
:10037000ACE8C009ACE8C009ACE8C00921F007014D
:100380008D46704710B50446AFF300802046BDE8A7
:100390001040FFF7B0BF0000004870470000002089
:1003A00001491820ABBEFEE726000200704700009E
:1003B00080B545F24000C4F200000068102803D167
:1003C000FFE700F0E7FA2BE000F0F2FA00F094FA11
:1003D00000F009FD49F69A12C9F6991249F69913E7
:1003E000C3F6997300F08AFD46F60072C0F28142AE
:1003F00048F6C573C3F6A17300F080FD00F0C6FC9B
:10040000410840F26800C2F200000160006800F09C
:100410001FF940F26C01C2F2000101200870FFE7F1
:1004200045F21C41C4F200011020086080BD0000AC
:1004300081B04EF27001C4F20F010091086840F0E3
:1004400000400860086840F4006008604EF26002F6
:10045000C4F20F02106820F4F8601060106800F514
:10046000A8601060086820F07000086008680860E4
:10047000086820F400500860086840F08040086078
:100480000868092262F39C500860FFE74EF25000B2
:10049000C4F20F0000684006002801D4FFE7F5E72A
:1004A0004EF27001C4F20F01086820F40060086089
:1004B00001B070474EF20811C4F20F01086840F015
:1004C00002000860FFE74EF20810C4F20F00006857
:1004D00000F00200022801D0FFE7F4E745F22C51BA
:1004E000C4F20001086820F47F00086045F228513A
:1004F000C4F20001086820F03000086045F20041B5
:10050000C4F20001086820F010000860086840F09C
:100510002000086045F22041C4F20001086820F084
:100520003000086045F21C51C4F20001086840F038
:100530003000086045F20441C4F20001086820F070
:100540001000086045F20841C4F20001086840F05C
:100550001000086045F20C41C4F20001086820F068
:100560001000086045F21C41C4F200011020086030
:1005700045F21041C4F20001086840F01000086024
:100580004EF20042CEF200021168022060F34F31B9
:1005900011604EF20011CEF20001086070470000B9
:1005A0004EF20811C4F20F01086840F02000086004
:1005B000FFE74EF20810C4F20F00006800F02000C0
:1005C000202801D0FFE7F4E745F22051C4F20201F0
:1005D00044F24B30C4F64F40086045F22451C4F257
:1005E0000201086840F00E00086045F22851C4F28C
:1005F0000201086820F00E00086045F22C51C4F298
:10060000020108684FF6F0729043086045F200411D
:10061000C4F20201086840F00E00086045F2FC31A7
:10062000C4F20201086820F00E00086045F2204183
:10063000C4F20201086820F00E00086045F21C5167
:10064000C4F20201086840F00E0008607047000024
:1006500080B584B00390039840F27001C2F20001AB
:10066000086003980A2860D3FFE7039846285CD8FF
:10067000FFE703980A3800F0B6FB00220023C4F21B
:100680004E0300F0EDF9019100900098019949F6B0
:100690009A12C9F6991249F69913C3F6B97300F084
:1006A00040FD58B9FFE749F69910C3F6B9700190BB
:1006B00049F69A10C9F69910009019E0009801992E
:1006C0004CF6CD42CCF6CC424CF6CC43C3F6EC73A0
:1006D00000F02EFD58B9FFE74CF6CC40C3F6EC70A5
:1006E00001904CF6CD40CCF6CC400090FFE7FFE700
:1006F00000980199002246F60023C4F2181300F076
:10070000FDFB00F043FB014640F26000C2F2000036
:100710000160016841F68020C0F20600401A40F2F4
:100720006401C2F200010860FFE704B080BD000070
:100730004EF21001CEF20001086820F001000860BE
:1007400040F27000C2F200000068092838D8FFE7C4
:1007500045F2FC30C4F20200016881F00201016040
:1007600000688007002816D5FFE740F26400C2F257
:10077000000049F28061C0F29801016040F260021D
:10078000C2F200021160006801384EF21401CEF28C
:100790000001086013E045F2FC31C4F20201086870
:1007A00020F00E00086040F26000C2F20000006815
:1007B00001384EF21401CEF200010860FFE75CE060
:1007C00040F27000C2F2000000680A2840D3FFE740
:1007D00040F27000C2F200000068462838D8FFE7F7
:1007E00045F2FC30C4F20200016881F00E010160A4
:1007F000006810F00E0F16D0FFE745F2FC30C4F28F
:10080000020000686FF0020108420CD0FFE740F2DE
:100810006400C2F20000006801384EF21401CEF20A
:100820000001086013E045F2FC31C4F202010868DF
:1008300020F00E00086040F26000C2F20000006884
:1008400001384EF21401CEF200010860FFE713E018
:1008500045F2FC31C4F20201086820F00E00086085
:1008600040F26000C2F20000006801384EF214014C
:10087000CEF200010860FFE7FFE74EF21801CEF26A
:100880000001002008604EF21001CEF2000108685D
:1008900040F001000860704740F26401C2F20001BC
:1008A00040F64050C0F20300086040F26001C2F21E
:1008B000000108604EF21001CEF200010020086035
:1008C0004EF21403CEF2000340F63F52C0F2030290
:1008D0001A604EF21802CEF2000210604EF620525C
:1008E000CEF200021068022363F35F7010600868A4
:1008F00040F007000860704741F22800C4F203008E
:10090000006841F24801C4F203010968401A7047C7
:100910004EF20461C4F20F01086840F00200086062
:1009200041F20C01C4F203010020086041F2000111
:10093000C4F20301086041F20402C4F2030202217E
:10094000116041F23801C4F20301086070470000F1
:1009500080B582B00190019800EB8000C00000904B
:100960000098013841F22801C4F20301086041F205
:100970000C01C4F2030101200860FFE741F24800C6
:10098000C4F20300006808B1FFE7F7E700F010F8D1
:1009900002B080BD41F22801C4F203016FF00100F2
:1009A000086041F20C01C4F20301012008607047A5
:1009B00041F20C01C4F20301086820F00100086054
:1009C0007047000080B582B000200190FFF79AFCCC
:1009D000FFF72EFDFFF76EFDFFF7E2FDFFF798FF33
:1009E000FFF75AFFFFF790FCFFE740F26C01C2F2FD
:1009F00000010020087040F26801C2F200010860A6
:100A000045F28001C4F200010091086820F0200046
:100A100008600220FFF79CFF0099086840F0200062
:100A200008600A20FFF794FF0099086820F0200072
:100A30000860FFE740F26C00C2F20000007808B9DD
:100A4000FFE7F7E7D1E7491058BFC1F140415B101C
:100A500058BFC3F140438B42EFF300807047000062
:100A60002DE9C04130B4DFF8A4C23CEA111418BF2C
:100A70003CEA131400F0ED801CEA111481EA03052E
:100A800044EAD57418BF1CEA131500F0C880A4EB23
:100A9000050404F17F7404F500344FF0004545EA85
:100AA000C12145EAC32341EA505143EA52534FEA78
:100AB000C0204FEAC222994208BF904200F09D80B8
:100AC0004FEA13650FF24416765D4FEA134506FBB5
:100AD00005F7C7F1807706FB07F74FEAD737A7FB83
:100AE00003687642A7FB06CEC8F5803838BFA8F168
:100AF000010807FB08E6A6FB028C4FF0000EE6FBA0
:100B000003CEDCF1000CCEF1004E38BFAEF1010E89
:100B1000A6FB0C584FF00007E6FB0E87A1FB08C6AA
:100B2000A0FB07CE16EB0E064FF0000545F10005C1
:100B3000E1FB076515F1E04E7EBFA4F580345FEA66
:100B400046066D4116F1800745F100054FEA17276B
:100B500047EA05674FEA15254FEA0666A6F1DE4625
:100B6000B6F1805F20D9384605EBC47124F0010C42
:100B700001EB0C11BCF1FE6F02D8F0BCBDE80081A6
:100B800024425CBF01F5801E9EEAC47F02D4F0BC03
:100B9000BDE80081244200F13980A1F1C041F0BCE0
:100BA000BDE8004100F0A2BA4FEAD02040EA41502F
:100BB0004FEAD1214FEAD22242EA43524FEAD323ED
:100BC000A7FB028607FB036605FB02661EEA0E0F03
:100BD00058BFA6EB0056B6EB00564FEA520E4EEA4F
:100BE000C37E18EB0E0E56EB530EBCD518EB020865
:100BF0005E417F1C55F10005B5E74FF480154FF0BD
:100C000000074FF000064FF00008ACE701F1C041CB
:100C100001F000414FF00000F0BCBDE800810CEA9B
:100C2000131511EA0C1F00D00CE013EA0C1F00F0A2
:100C300026804FF0000081EA030101F00041F0BC82
:100C4000BDE80081F0BCBDE8004181EA030100F08D
:100C50004DBAF0BCBDE8004170B500F0F9F900BF35
:100C6000097EFC3E00F007B84FF0000081EA030166
:100C700001F00041704781EA030100F037BAF0BC8F
:100C8000BDE8004122494FF000007047FFFDFBF92D
:100C9000F7F5F4F2F0EEEDEBE9E8E6E4E3E1E0DEAF
:100CA000DDDBDAD8D7D5D4D3D1D0CFCDCCCBCAC821
:100CB000C7C6C5C4C2C1C0BFBEBDBCBBBAB9B8B748
:100CC000B6B5B4B3B2B1B0AFAEADACABAAA9A8A83B
:100CD000A7A6A5A4A3A3A2A1A09F9F9E9D9C9C9B09
:100CE0009A999998979796959594939392919190B4
:100CF0008F8F8E8E8D8C8C8B8B8A89898888878745
:100D00008685858484838382828181800000FF07B9
:100D10000000F87F51EA030C17D41CF5801F58BF60
:100D2000BCF5801F00F10680994218BF704708BFCC
:100D30009042704707D711F5801F58BF13F5801FE9
:100D400019D499427047894270471CF5801F08D515
:100D5000BCF5801FF7D58B4218BF704708BF824291
:100D600070474FF4001C1CEB410F38BF1CEB430FC6
:100D700001D28B42704770B500F06AF992244900A5
:100D80004FF000514FF08053FFF75DBE4FEA115313
:100D9000A3F58063D3F11E03A8BFD3F1200C08DBB9
:100DA0004FF0004242EAC12252EA505232FA03F0B6
:100DB000704709420BD4102BC4BF0020704703F5C5
:100DC000787CBCF1FF3F05D04FF0FF3070474FF00B
:100DD0000000704770B500F03BF900BF49922480D5
:100DE00000207047F0E7B0FA80F310FA03F10AD060
:100DF000C3F11D0303F580634FEA03524FEA4150EC
:100E000002EBD12170474FF00000704751EA030C0C
:100E100017D41CF5801F58BFBCF5801F00F1068059
:100E2000994218BF704708BF9042704707D711F525
:100E3000801F58BF13F5801F19D49942704789420B
:100E400070471CF5801F08D5BCF5801FF7D58B4275
:100E500018BF704708BF824270474FF4001C1CEB5C
:100E6000410F38BF1CEB430F01D28B42704770B566
:100E700000F0EEF8922449004FF080514FF00053FB
:100E8000FFF7E1BD51EA030C17D41CF5801F58BFD2
:100E9000BCF5801F00F10680994218BF704708BF5B
:100EA0009042704707D711F5801F58BF13F5801F78
:100EB00019D499427047894270471CF5801F08D5A4
:100EC000BCF5801FF7D58B4218BF704708BF824220
:100ED00070474FF4001C1CEB410F38BF1CEB430F55
:100EE00001D28B42704770B500F0B2F892244900ED
:100EF0004FF000514FF08053FFF7A5BD70B5DFF8FC
:100F000048C11CEA111E1EBF1CEA13159EEA0C0FF5
:100F100095EA0C0F00F06F8081EA03044EEAD47E5C
:100F2000AE4421EA4C1123EA4C1341F4801143F4FE
:100F30008013AEF17F7EA1FB024CA0FB0365361946
:100F400055EB0C05A1FB034C4CF10003A0FB021C6C
:100F500016EB0C06654153F10003094218BF46F039
:100F6000010613F4007F0BD14FEA03314FEA05303D
:100F700041EA155140EA165034036FF003020AE0CB
:100F80004FEAC3214FEAC52041EA555140EA565085
:100F9000F4026FF0020202EB2E4201EB025585EAE9
:100FA000CE710AD05FEA440C18BF24F0004450F11F
:100FB000000041F1000120EAD47040F2FE7C62455D
:100FC00000D270BDA84214BF4FF080444FF040449F
:100FD000002E08BF0024BEF1806FA8BFA1F1C04160
:100FE000BDE8704080F2828001F1C04101F0004113
:100FF0004FF0000070470CEA13159EEA0C0F18BF63
:1010000095EA0C0F06D081EA030E4FF000000EF0B7
:10101000004170BD00F01CF88900013E00F007B8E7
:1010200000F009B84FEA430C5FEA5C5C08D081EA43
:10103000030100F05BB84FEA410C5FEA5C5CF6D15B
:1010400002494FF0000070470000FF070000F87FE2
:101050000EF1020E2EF0030E5EF8046B364205D43C
:10106000012A43EB030515F5001F12D8012841EBB7
:10107000010C1CF5001F0CD80ED14FEAD17C0CEBF3
:101080004C0C0CF1020C15F5001F08BF4CEBD37C87
:1010900004E04FF0080C01E04FEAD37C0CEB4C0568
:1010A00026FA05F606F00706B6F1040C06D20EEB9A
:1010B000860CBDE870404CF0010C6047DFE80CF096
:1010C000090B02024FF00041A1F500214FF0000092
:1010D00070BD19461046012851EB010418BFD4F524
:1010E000001484BF002001F0004170BD0808A0F585
:1010F00000114FEA3101704710B5FFF70BFE0CBF2E
:101100000120002010BD10B5FFF704FE14BF012020
:10111000002010BD10B5FFF779FE8CBF0120002024
:1011200010BD10B5FFF772FE2CBF0120002010BDCE
:1011300010B5FFF7A7FE94BF0120002010BD10B529
:10114000FFF7A0FE34BF0120002010BD5C1100009D
:0C1150000000002078040000C002000035
:040000050000026D88
:00000001FF
